:020000040800F2
:10000000C09F0020E1010008F5390008F739000819
:10001000F9390008FB390008FD390008000000002C
:10002000000000000000000000000000490100087E
:10003000FF390008000000008D010008013A0008A7
:10004000FB010008FB010008FB010008FB010008A0
:10005000FB010008FB010008FB010008FB01000890
:10006000FB010008FB010008FB010008FB01000880
:10007000FB010008FB010008FB010008FB01000870
:10008000FB010008FB010008FB010008FB01000860
:10009000FB010008FB010008FB010008FB01000850
:1000A000FB010008FB010008FB010008FB01000840
:1000B000E937000869380008ED380008FB0100083E
:1000C000FB010008FB010008FB010008FB01000820
:1000D000FB010008BD3600089F370008E536000820
:1000E000FB010008FB010008FB010008FB01000800
:1000F000FB010008FB010008FB010008FB010008F0
:10010000FB010008FB01000871390008FB01000831
:100110005537000877370008C7370008FB0100088B
:10012000FB010008FB010008FB010008FB010008BF
:10013000DFF810D009F0DEF8004800479F1E0008E5
:10014000AFF30080C09F0020224B19680868B0E818
:10015000F00F80F30988BFF36F8F4FF0000080F33A
:1001600011884EF00D0E7047000000000648006830
:10017000006880F3088862B661B6BFF34F8FBFF3A3
:100180006F8F00DF00BF00BF08ED00E0EFF30980D4
:10019000BFF36F8F0F4B1A6820E9F00F106008B59E
:1001A0004FF0500080F31188BFF34F8FBFF36F8F74
:1001B00003F08BFF4FF0000080F31188BDE808408A
:1001C00019680868B0E8F00F80F30988BFF36F8FF3
:1001D000704700BF38000020EFF305807047000033
:1001E0000648804706480047FEE7FEE7FEE7FEE7D1
:1001F000FEE7FEE7FEE7FEE7FEE7FEE7A5020008F2
:10020000310100080CB500224C48009201920168AF
:1002100041F4803101604FF4A063016801F40031C2
:1002200001910099491C0091019911B900999942D5
:10023000F3D10168890333D50121019140490A684E
:1002400042F010020A600A6822F003020A600A689B
:1002500042F002020A6041684160416841604168C1
:1002600041F480614160416821F47C114160416842
:1002700041F4E8114160016841F08071016001685A
:100280008901FCD5416821F003014160416841F0DA
:10029000020141604168C1F381010229FAD10CBD1C
:1002A00001920CBD254810B5016841F001010160C3
:1002B0004168244A114041600168234A11400160AD
:1002C000016821F480210160416821F4FE01416050
:1002D0004FF41F018160FFF795FF1C494FF000604C
:1002E000086010BD154A10B55068194B10F00C018C
:1002F000184803D0042901D0082901D0036012E076
:100300005168536801F470114FF0020413F4803FF8
:1003100004EB914102D053689B0301D50E4B00E0E2
:100320000B4B5943016051680A4AC1F30311121D76
:10033000515C0268CA40026010BD0000001002401B
:10034000002002400000FFF8FFFFF6FE08ED00E08D
:1003500000127A000000002000093D0028490843EF
:1003600028490860704730B50F23C278017801250D
:10037000F2B1244A126801F1E02102F4E062C2F510
:10038000E062120AC2F10404D3404278A2408478A9
:100390001C401443220181F80024007800F01F0162
:1003A0008D404009800000F1E020C0F8005130BDD0
:1003B00001F01F0085404809800000F1E020C0F8EE
:1003C000805130BD104A114001430E48001F0160AA
:1003D00070470C4A121D0029116801D0014300E04A
:1003E0008143116070474FF0E0210428086903D071
:1003F00020F004000861704740F00400FAE70000B4
:100400000000FA050CED00E080FFFF1F01684FF6C9
:10041000FE72114001600021016041608160C16095
:100420006A496A4A0839904203D1486840F00F008F
:1004300006E0664A1432904204D1486840F0F00069
:1004400048607047614A2832904203D1486840F4BE
:100450007060F5E75D4A3C32904203D1486840F451
:100460007040EDE7594A5032904203D1486840F459
:100470007020E5E7554A6432904203D1486840F461
:100480007000DDE7514A7832904203D1486840F06D
:100490007060D5E74E4A111F904203D1086840F0C2
:1004A0000F0006E04A4A1432904204D1086840F036
:1004B000F00008607047464A2832904203D108682D
:1004C00040F47060F5E7424A3C32904203D108683C
:1004D00040F47040EDE73E4A50329042EAD108685D
:1004E00040F47020E5E730B5026847F6F0739A43B0
:1004F0000C6A8B682343D1E904452C4323438C6960
:100500002343CC6923434C6A23438C6A234313431C
:100510000360CA6842600A6882604968C16030BD91
:100520000021016041608160C160016141618161C0
:10053000C16101624162816270470029016802D095
:1005400041F0010102E04FF6FE7211400160704778
:10055000002A026801D00A4300E08A430260704723
:1005600041607047406880B2704702460020D10069
:1005700002D51749083901E01449083909681142C0
:1005800000D001207047C10003D51149091F086040
:1005900070470E4908394860704702460020D10074
:1005A00002D50B49083901E00849083909681142A8
:1005B00000D001207047C10003D50549091F08601C
:1005C000704702490839486070470000080002403F
:1005D000080402408F4910B5884206D10121042049
:1005E00000F049FA002104203BE08B49884206D103
:1005F0000121082000F03FFA0021082031E087495E
:10060000884206D10121102000F035FA0021102087
:1006100027E08349884206D10121202000F02BFAEF
:10062000002120201DE07F49884206D10121402081
:1006300000F021FA0021402013E07B49884206D1D6
:100640000121802000F017FA0021802009E077497D
:1006500088420AD184150121204600F00CFA0021BD
:100660002046BDE8104000F006BA10BD10B50121CB
:10067000084600F000FA0021BDE81040012000F01B
:10068000FAB9F0B5CC78002204F00F03E40601D5E6
:100690008C7823430C784FF00F0C14F0FF0F4FF0C1
:1006A000010E1BD005680E880EFA02F42640A64201
:1006B00010D196000CFA06F725EA070703FA06F5AB
:1006C000CE783D43282E02D0482E02D002E044616D
:1006D00000E00461521C082AE5D305600A88FF2A5D
:1006E0001CD94468002202F108060EFA06F50E88AD
:1006F0002E40AE420ED196000CFA06F7BC4303FA28
:1007000006F7CE783C43282E00D14561CE78482E9E
:1007100000D10561521C082AE5D34460F0BD4FF6B4
:10072000FF710180022181700421C170704702466F
:10073000002092680A4200D001207047806880B291
:10074000704702460020D2680A4200D0012070475C
:10075000C06880B2704701617047416170470AB15B
:100760000161704741617047C160704741F4803258
:100770008261816182618169806970472C4B10B50B
:100780001A684FF68074224042EA0010084318604D
:1007900010BD2849C8617047F0B5254C002801DA22
:1007A000E36900E06368450D2E0185B2C0F301578F
:1007B000B540C0F30342032F05D0C6020AD5032675
:1007C0009640B34307E023F07062636823F07063E0
:1007D000636002E0AB4343F0706201B12A4300283A
:1007E00001DAE261F0BD6260F0BD10B58A0721F068
:1007F00003040F49120F21440F238C6893409C433C
:100800008C608B68904003438B6010BD0949C1F830
:10081000DC00704700080140000C0140001001405E
:100820000014014000180140001C0140002001405C
:100830000000014000002042A548016841F001018C
:1008400001604168A34A114041600168A24A114019
:100850000160016821F480210160416821F4FE01FA
:1008600041604FF41F018160704799490A6822F482
:1008700080320A600A6822F480220A60B0F5803F64
:1008800007D0B0F5802F03D1086840F4A02008609D
:100890007047086840F48030F9E7034600205909A2
:1008A0008B4A01290AD002290AD0516A03F01F029B
:1008B000012393400B4200D0012070471168F5E7F7
:1008C000116AF3E718B500204FF4A06400903120BE
:1008D000FFF7E3FF0099491C0091A14201D00028D5
:1008E000F5D03120FFF7D9FF002800D0012018BD36
:1008F000774A116821F0F80141EAC00010607047A2
:10090000764908607047724B5A68084322F47C129B
:100910001043586070477149086670476C4A5168C7
:1009200021F003010143516070476948406800F0BD
:100930000C007047664A516821F0F0010143516094
:100940007047634A516821F4E06101435160704788
:100950005F4A516821F4605141EAC000506070471D
:100960005B4A0029517A01D0014300E08143517272
:1009700070475A49C1F8D8007047554A516821F468
:1009800040410143516070475149002281F82020C5
:1009900081F82020012802D0042802D1052081F806
:1009A000200070474E490860704749490A6A02436F
:1009B0000A6270474A4944390860704730B5444A72
:1009C0005168484B11F00C0103D0042901D00829CB
:1009D00001D0036012E05168536801F470114FF0C8
:1009E000020413F4803F04EB914102D053689B034F
:1009F00001D53D4B00E03B4B5943016051680F234B
:100A000003EA1111394B5C5C0168E14041605468B4
:100A1000072505EA14241C5D21FA04F48460546857
:100A200005EAD4241B5DD940C1605268032303EA60
:100A300092322E4B1B1F9A5CB1FBF2F1016130BD6B
:100A4000234A0029516901D0014300E081435161EB
:100A500070471F4A0029916901D0014300E081439A
:100A6000916170471A4A0029D16901D0014300E021
:100A70008143D1617047164A0029D16801D00143F2
:100A800000E08143D1607047114A0029116901D00B
:100A9000014300E08143116170471149403908600A
:100AA00070470E49C86470470949C87170470848C3
:100AB000416A41F0807141627047054A0146002059
:100AC00092680A4200D0012070470149887270473D
:100AD000001002400000FFF8FFFFF6FE0000424257
:100AE0008004424200127A0000093D0018000020F4
:100AF000F94910B5884202D10121C41486E0B0F151
:100B0000804F09D0F54988420DD101210220FFF71D
:100B1000BBFF0021022064E001210846FFF7B4FF7B
:100B2000002101205DE0EE49884206D10121042028
:100B3000FFF7AAFF0021042053E0EA49884206D1CA
:100B400001210820FFF7A0FF0021082049E0E64925
:100B5000884206D101211020FFF796FF00211020C6
:100B60003FE0E249884206D101212020FFF78CFFB7
:100B70000021202035E0DE49884202D101214414C1
:100B800044E0DC49884202D10121CC043EE0DA494C
:100B9000884202D101210C0538E0D849884202D1AF
:100BA00001214C0532E0D649884206D1012140207E
:100BB000FFF76AFF0021402013E0D249884206D1A6
:100BC00001218020FFF760FF0021802009E0CE494D
:100BD00088420AD1841501212046FFF755FF0021E4
:100BE0002046BDE81040FFF74FBFC849884202D1F8
:100BF00001210C040AE0C649884202D101214C04BB
:100C000004E0C44988420AD101218C042046FFF740
:100C100032FF2046BDE810400021FFF72CBF10BD79
:100C200030B50288AC4CB24DA0420DD0A8420BD0DA
:100C3000B0F1804F08D0A94B984205D0A84B9842FC
:100C400002D0A84B984203D122F070034A881A437D
:100C5000A54B984206D0A54B984203D022F440738E
:100C6000CA881A4302808A8882850A880285A0423F
:100C70000AD0A84208D0A54A904205D0A44A904282
:100C800002D0A44A904201D1097A018601218182D1
:100C900030BD30B5028C22F001020284028C8388C0
:100CA000048B22F0020224F073050C882C430D897A
:100CB00015434A882A43884DA8420BD08C4DA84240
:100CC00008D0924DA84205D0914DA84202D0914D36
:100CD000A8420DD122F008054A8923F440732A4323
:100CE00022F004058A882A438D891D43CB892B4332
:100CF00083800483C9888186028430BD70B5028CEC
:100D000022F010020284028C8388048B0D8824F464
:100D1000E6464FF6FF7404EA052535430E8922F0B6
:100D2000200204EA061616434A8804EA02123243F5
:100D3000694EB04202D06E4EB04215D122F080060C
:100D40004A8923F4406304EA0212324322F0400647
:100D50008A8804EA021232438E8904EA86061E4318
:100D6000CB8904EA8303334383800583C9880187E1
:100D7000028470BD70B5028C22F480720284028CF1
:100D80008388848B0D8824F0730425430E894FF6E5
:100D9000FF7422F4007204EA062616434A8804EA25
:100DA000022232434C4EB04202D0514EB04215D1D5
:100DB00022F400664A8923F4405304EA02223243B3
:100DC00022F480668A8804EA022232438E8904EA89
:100DD00006161E43CB8904EA0313334383808583BD
:100DE000C9888187028470BD70B5028C22F480525C
:100DF0000284058C8288838B0C8823F4E6464FF6A8
:100E0000FF7303EA0424344325F400560D8903EAF2
:100E1000053535434E8803EA06362E432E4DA8424B
:100E200002D0334DA84205D122F480458A8903EAD5
:100E300082122A4382808483C988A0F840100684E5
:100E400070BD828B22F440628283828B4FF6FF73E7
:100E500003EA01210A4382837047828B22F00C024D
:100E60008283828B0A4382837047028B22F4406222
:100E70000283028B4FF6FF7303EA01210A430283C8
:100E80007047F0B5048C24F010040484078B048CA4
:100E90004FF6FF7527F4734705EA03333B4305EA32
:100EA00002221A430C4B05EA011698420ED0104B51
:100EB00098420BD0B0F1804F08D0084B984205D033
:100EC000074B984202D0074B984225D124F02001CD
:100ED000314341F0100124E0002C014000040040A7
:100EE00000080040000C00400010004000140040CA
:100EF00000340140004C01400050014000540140CA
:100F000000180040001C004000200040004001404C
:100F1000004401400048014024F0A0030B4343F08B
:100F2000100102830184F0BD028B22F00C020283C7
:100F3000028B0A430283704770B5048C24F00104CD
:100F40000484058B048C4FF6FF7606EA03131343E3
:100F500025F0F305F84A2B4390420ED0F74A904211
:100F60000BD0B0F1804F08D0F54A904205D0F54A39
:100F7000904202D0F44A904202D124F0020201E0F1
:100F800024F00A020A4342F001010383018470BD88
:100F90002DE9F84F0D4604460888E74FDFF89CC35B
:100FA000DFF89C83DFF89C934988AA882B894FF04F
:100FB000804A48B304282FD04FF6FF76082893467E
:100FC00032D0208C9E4620F480502084A38B208C2D
:100FD00006EA0132009223F4734306EA0B221A4315
:100FE00006EA0E331343BC420AD0644508D0544588
:100FF00006D0444504D04C4502D0D34A944242D155
:1010000020F40050009940E02046FFF795FFE98862
:101010002046BDE8F84F87E72046FFF732FFE98812
:101020002046BDE8F84F20E7208C20F48070208413
:10103000B4F81CE0208C06EA031306EA01222EF025
:10104000F30E43EA0B0343EA0E030092BC420AD0BC
:10105000644508D0544506D0444504D04C4502D0E0
:10106000B94A944203D120F40070009901E020F4C1
:101070002060084340F48070A3832084E9882046E0
:10108000BDE8F84FE9E620F40240084340F4805000
:10109000A3832084E9882046BDE8F84FD1E62DE9F6
:1010A000F0410C46002649880746012501B9022671
:1010B000A288012A00D102252088238900283846E9
:1010C00010D0FFF7DEFEE1883846FFF7CEFE238919
:1010D0002A4631463846FFF72FFFE1883846BDE8FB
:1010E000F04121E7FFF728FFE1883846FFF71CFFB2
:1010F00023892A4631463846FFF7C3FEE188384641
:10110000BDE8F041B1E610B50A884B88CC881A4397
:101110008B8823431A430B891A434B8989891A43C5
:101120000A43A0F8442010BD4FF6FF7181800021D2
:101130000180C1804180017270470021018041809F
:101140008180C180018141818181C18170470021FD
:101150000180418001228280C1800181704700218D
:10116000018041808180C1800181418181817047FE
:101170000029018802D041F0010101E021F00101C4
:1011800001807047002930F8441F02D041F400412B
:1011900001E0C1F30E0101807047002A828901D06D
:1011A0000A4300E08A43828170478182704711437D
:1011B000A0F848107047002A828901D00A4300E055
:1011C0008A4382817047018921F0070101817047BC
:1011D000028922F070020A430281704700B503467B
:1011E000FFF7F6FF188940F00700188100BD70B5C1
:1011F00016460D46602904464FF0010231460AD0DA
:10120000FFF79AFE29462046FFF7E2FF208940F0CB
:101210000700208170BDFFF734FEF3E730B5048985
:101220004FF6FF7505EA03231343E4B20B43234350
:10123000038130BD10B50446FFF7F0FF208940F070
:101240007700208110BD10B50446FFF7E7FF208925
:1012500040F48040208110BD018582827047028861
:1012600022F070020A430280704770B50589048B32
:10127000068C25F007050D434FF6FC410C4040F26B
:1012800001110C434FF6FF7101EA031126F022060B
:101290001143314305810483018470BD028B22F028
:1012A00070020A4302837047028B4FF6FF7322F4E9
:1012B000E04203EA0121114301837047828B22F04F
:1012C00070020A4382837047828B4FF6FF7322F4C9
:1012D000E04203EA0121114381837047002901881C
:1012E00002D041F0800101E021F0800101807047CF
:1012F0000029818802D041F0040101E021F00401BD
:10130000818070470029818802D041F0080101E006
:1013100021F00801818070470029818802D041F0C6
:10132000010101E021F0010181807047028B22F070
:1013300008020A4302837047002C01400034014038
:101340000004004000080040000C0040028B4FF6F3
:10135000FF7322F4006203EA012111430183EAE7EB
:10136000828B22F008020A438283E4E7828B4FF6E5
:10137000FF7322F4006203EA012111438183DAE75B
:10138000028B22F004020A430283D4E7028B4FF659
:10139000FF7322F4806203EA012111430183CAE74B
:1013A000828B22F004020A438283C4E7828B4FF6C9
:1013B000FF7322F4806203EA012111438183BAE7BB
:1013C000028B22F080020A430283B4E7028B4FF6BD
:1013D000FF73C2F30E0203EA012111430183AAE75E
:1013E000828B22F080020A438283A4E7828B4FF62D
:1013F000FF73C2F30E0203EA0121114381839AE7CE
:10140000028C22F002020A43028494E7028C22F04A
:1014100008020A4302848EE7028C4FF6FF7322F023
:10142000200203EA01111143018484E7028C4FF684
:10143000FF7322F0800203EA0111114301847AE76D
:10144000028C4FF6FF7322F4007203EA012111436C
:10145000018470E7028C4FF6FF7322F4006203EA06
:1014600001211143018466E7028C4FF6FF7322F4D9
:10147000005203EA0131114301845CE710B50123F6
:10148000048C8B409C430484038C8A401343038464
:1014900010BD10B50423048C8B409C430484038C42
:1014A0008A401343038410BD30B50124058C00F13C
:1014B00018038C40A543058489B108290FD0091F62
:1014C000C1F34E001844016821F4E0410160016855
:1014D0004FF6FF7303EA02221143016030BD03EBB4
:1014E0005100016821F0700101600168F4E70029F2
:1014F000018802D041F0020101E021F002010180E7
:1015000019E70029018802D041F0040101E021F02F
:10151000040101800FE70029818802D041F0800199
:1015200001E021F08001818005E7028822F00802B5
:10153000028002880A430280FDE6828822F070025F
:10154000828082880A438280F5E6028922F00702BF
:10155000028102890A430281EDE6028922F08002BB
:10156000028102890A430281E5E68184E3E68185FE
:10157000E1E68186DFE60187DDE68187DBE6A0F82C
:101580004010D8E6028822F44072028002880A43A2
:101590000280D0E6808ECEE6008FCCE6808FCAE651
:1015A000B0F84000C7E6808CC5E6008DC3E6024671
:1015B0000020128A0A4200D00120BCE6C943018201
:1015C000B9E602460020138A92890B4202EA010220
:1015D00002D0002A00D00120ADE6C9430182AAE66C
:1015E000C44910B588420AD101218C032046FFF777
:1015F00042FA2046BDE810400021FFF73CBABE4940
:10160000884202D101214C0410E0BC49884202D139
:1016100001218C040AE0BA49884202D10121CC049C
:1016200004E0B84988420AD101210C052046FFF7A1
:101630002BFA2046BDE810400021FFF725BA10BD67
:1016400030B50446008A85B00D464CF6FF7108405F
:10165000E98801432182A0894EF6F3110840A98848
:101660002A8911436A8902431143A181A08A4FF656
:10167000FF410840A9890143A1826846FFF79EF90E
:101680009C48844201D1039800E00298A189090492
:1016900000EBC00101EB0010296801D5490000E012
:1016A0008900B0FBF1F06422B0FBF2F109010B09F3
:1016B0006FF018056B4300EB8300A3891D044FF006
:1016C000320306D503EBC000B0FBF2F000F00700D8
:1016D00005E003EB0010B0FBF2F000F00F00084350
:1016E000208105B030BD4FF416510160002181808A
:1016F000C18001810C2242818181704710B5028A2C
:101700004FF2FF031A400B884C8823438C88C9880A
:101710000C4323431343038210BD00210180418009
:101720008180C18070470029818902D041F4005135
:1017300001E021F400518181704710B5C1F34213DB
:1017400001F01F040121A140012B07D0022B07D07B
:101750001430002A026805D00A4304E00C30F8E790
:101760001030F6E78A43026010BD002A828A01D059
:101770000A4300E08A4382827047028A22F00F0205
:101780000282028A0A4302827047828922F400623E
:10179000828182890A43828170470029818902D02F
:1017A00041F0020101E021F0020181817047028ACB
:1017B00022F020020282028A0A4302827047002934
:1017C000018A02D041F4804101E021F4804101828C
:1017D0007047C1F30801818070478088C0F308001A
:1017E0007047818941F0010181817047028BD2B23B
:1017F0000283028B42EA012101837047028B02F4CB
:101800007F420283028B0A43028370470029818A48
:1018100002D041F0200101E021F0200181827047D7
:101820000029818A02D041F0100101E021F010016D
:10183000818270470029818A02D041F0080101E0CD
:1018400021F00801818270470029818902D041F48A
:10185000004101E0C1F30E01818170470029818AB6
:1018600002D041F4006101E021F4006181827047FF
:10187000828A22F004028282828A0A43828270472C
:101880000029818A02D041F0020101E021F0020129
:10189000818270470246002012880A4200D001204F
:1018A0007047C9430180704770B501F01F050126DC
:1018B0000024C1F3421306FA05F2012B0FD0022BCC
:1018C0000FD0838A4FEA11210088134206FA01F6ED
:1018D00000EA060001D000B10124204670BD8389D2
:1018E000F0E7038AEEE70A0A01219140C94301802B
:1018F00070470000003801400044004000480040AC
:10190000004C0040005000402DE9FF4F89B01546C3
:10191000894606464FF07E5BFE4C1699B0F5000FE7
:1019200001DB584602E080F00046FB486060084654
:1019300007F0C4FA07468846484607F0BFFA8146D2
:101940008A46304607F0BAFAF44A0697CDE907828C
:10195000CDE904780023CDE90233CDE9009A1A4697
:1019600005F0C6F8B5F5000F01DB584602E0EA487D
:1019700085F00045A060179807F0A0FA07460E46CC
:101980000C9807F09BFA80468946284607F096FA9D
:10199000E24ACDE906766832089200220DF1080A83
:1019A000134605968AE88C00CDE9008905F0A0F879
:1019B000DB4900200860012020706070207800283A
:1019C000FCD160780028F9D10DB0BDE8F08F2DE989
:1019D000FC5FDFF85483D34CDFF850B300944146EA
:1019E00043465A4600200194FFF78EFFDFF840A3DC
:1019F00020215046FEF79BFECE4F4FF00109060016
:101A000087F80090CC4D02D04FF0804001E04FF0BD
:101A10004040C5F8600220215046FEF788FEB042E3
:101A2000F9D00026C5F860623E70C44F87F8009078
:101A30000121072005F092FC4FF4FA7003F02FFA11
:101A40005D46DFF8FC92DFF8FCA205F088FB8346D8
:101A500007F01BFAAC3800D54042052849DA3E7041
:101A60000094234600222146B7480194FFF74CFF1B
:101A700000942346B54A214600200194FFF744FF15
:101A80000121372005F06AFC4FF47A74204603F0F8
:101A900006FA0121CB2005F061FC40F6B83003F0D6
:101AA000FEF90121422005F059FC204603F0F7F928
:101AB000A74900910B464FF0404200200191FFF7EB
:101AC00023FF0121CD2005F049FC4FF4965003F08F
:101AD000E6F90121582005F041FC204603F0DFF92A
:101AE0000121422005F03AFCBDE8FC5FC82003F06C
:101AF000D6B94946584606F099FF514606F0CEFF42
:101B000002462B460095414600200195FFF7FCFE5A
:101B10009BE72DE9FC5F0121732005F01FFC40F2DB
:101B2000DC5003F0BCF9DFF82C82DFF81892884D06
:101B3000894E05F014FB044607F0A7F9823800D55A
:101B4000404205280FDB4146204606F06FFF49461C
:101B500006F0A4FF0246294600950B460020019599
:101B6000FFF7D2FEE5E77D4F7D4C4FF0404A05F090
:101B7000F6FAB84220DD0096334600223146794815
:101B80000196FFF7C1FE294600950B4600226248E8
:101B90000195FFF7B9FE009633466B4A31460020A7
:101BA0000196FFF7B1FE01216D2005F0D7FB4FF440
:101BB0007A6003F074F908E0CDE900463346214627
:101BC00000225046FFF7A0FED1E705F0C8FA044610
:101BD00007F05BF9823800D54042052806DA002478
:101BE00042F6F82ADFF880B1604F0FE04146204608
:101BF00006F01CFF494606F051FF024629460095B3
:101C00000B4600200195FFF77FFEDEE705F0A7FAFF
:101C1000009007F03AF9823800D5404205280EDAE4
:101C200030203870022C5BDA4121514803F094FADD
:101C300038783028FCD03878422810D021E041464E
:101C4000009806F0F3FE494606F028FF02462946B2
:101C500000950B4600200195FFF756FED6E7012CB4
:101C60000FD00121792005F079FB42F2107003F0CA
:101C700016F9294600950B4600223E480195FFF7CC
:101C800043FE3878422811D1012C0FD1012179204F
:101C900005F064FB42F2107003F001F9294600954B
:101CA0000B46002258460195FFF72EFE3878432850
:101CB00009D1012C07D0294600950B4600222D485A
:101CC0000195FFF721FE3878432809D1012C07D16F
:101CD000294600950B46002258460195FFF714FE51
:101CE000A01E04287BD24121214803F035FA387820
:101CF0003028FCD03878422843D1052C41D001212E
:101D00007B2005F02BFB504603F0C9F829460095CF
:101D10000B4631E028000020000080BFE0000020DA
:101D2000BC000020000070420000B4420000F041FE
:101D300000080140B900002018980020BA000020D7
:101D400000002C4300007041000080C0000060C013
:101D50000000A041000002430000C84200004843C8
:101D600000002042000050419A991941A000002033
:101D7000005000409A9901410022FD480195FFF76B
:101D8000C3FD3878422810D1052C0ED101217B20CB
:101D900005F0E4FA504603F082F8294600950B4618
:101DA000002258460195FFF7AFFD3878432809D146
:101DB000052C07D0294600950B460022EC480195DA
:101DC000FFF7A2FD3878432809D1052C07D1294611
:101DD00000950B46002258460195FFF795FDA01F80
:101DE000022852D24121E34803F0B6F9387830286E
:101DF000FCD03878422811D1072C0FD001217D204A
:101E000005F0ACFA42F2107003F049F8294600954B
:101E10000B460022D6480195FFF776FD3878422818
:101E200015D1072C13D101217D2005F097FA42F23C
:101E3000107003F034F8314600960B460022284615
:101E40000196FFF761FD01210A2005F087FA387835
:101E5000432809D1072C07D0294600950B460022BC
:101E6000C3480195FFF750FD387843280DD1072C62
:101E70000BD1314600960B46002228460196FFF70B
:101E800043FD01210A2005F069FA641C082CFFF6C5
:101E9000ACAEBDE8FC5F4421B64803F05DB92DE966
:101EA000F04F87B0642002F0FAFF4FF44070FEF765
:101EB00055FA03F000F94FF4FA7002F0F0FF03F066
:101EC000AEF803F0FCFC03F0CFFA03F046FB03F09E
:101ED000AAFB03F006FC03F0CCFE05F01BF903F0AF
:101EE000A7F903F038FA04F0ABF803F087FDA24835
:101EF00002AC032307C884E8070002AA01211846A0
:101F000003F011FF6420002305901A4601210520EB
:101F100003F009FF012305AA1946184603F003FF41
:101F200096486121017000254570954F954C01261A
:101F3000FD6008212046FEF7FAFB00B1FE60042197
:101F40002046FEF7F4FB10B10220F86002E0F868CA
:101F50000028EED0387B3030C1B2864803F0FCF860
:101F600001210A2005F0FAF985484FF4C87740F2BC
:101F7000145BC068012804D0022874D0002007B088
:101F800023E5DFF80492CDF8009049460B467F4ADE
:101F90007F48CDF80490FFF7B7FC7F497D48C1F832
:101FA00050028846D8F880027A4906F03FFD7B4906
:101FB00006F042FD06F069FF002800DA40420528DD
:101FC000F0DA384602F06BFF0121042005F0C6F973
:101FD000584602F064FFDFF8C8A140215046FEF7E2
:101FE000A6FBDFF8C0B107468BF800606E48464696
:101FF000C8F8640240215046FEF799FBB842F9D078
:10200000B246C6F864528BF80050DFF89081002188
:102010004346CDF80080654A0846CDF80480FFF7B6
:1020200073FC01214E2005F099F94FF4AF6002F0E6
:1020300036FF33214F4803F08FF85D4F3D70002687
:102040004FF4AF7B1CE03878342808D166B1012109
:102050004D2005F083F9584602F021FF3D70387895
:1020600035280DD102E05AE20126F7E7002E7DD097
:102070000121632005F072F9584602F010FF3D700F
:1020800038783628DFD138783628FCD10121042071
:1020900005F064F94FF4FA6002F001FF454E009636
:1020A0003346454A314600200196FFF72DFC0121B9
:1020B000142005F053F9414900910B460022404895
:1020C0000191FFF721FC4B46CDF800903D4A314687
:1020D0003D48CDF80490FFF717FC3C485746CAF836
:1020E000500282464646D7F88002514606F09EFCD2
:1020F000314606F0A1FC06F0C8FE002800DA404296
:102100000528F0DAFFF705FDD046C7F850A22248AF
:10211000D0F88002414606F089FCB346314606F00D
:102120008BFC06F0B2FE002800DA40420528EEDA09
:10213000154E00963346264A314600200196FFF799
:10214000E3FB009643460022314622480196FFF702
:10215000DBFBDFF88490214E05F027F80746484561
:10216000FADC06F092FE21383BD539E04BE0000066
:102170009A9901410050004010A50008A2000020DB
:1021800028000020001801400000C8420000D14390
:10219000000054C20000874318980020000020412E
:1021A00000080140BA0000200000A041000080BFEC
:1021B000A00000200000484200000CC20000704255
:1021C0000000DCC20000E6C2000078C20000B44299
:1021D000000002C300005CC2000016440000F04191
:1021E000404202281BDBFE49384606F01FFCFD4931
:1021F00006F054FC02463346009641460020019604
:10220000FFF782FBA8E7012639E7F7483146CDE919
:10221000006053460022F548FFF776FB00E0C24617
:102220001021F348FEF783FA0028EED0F14C009419
:1022300023464FF07E52214600200194FFF764FBB5
:102240000094234600222146EB480194FFF75CFBF3
:102250004FF47A7002F023FE0121332005F07EF85E
:102260004FF4FA6002F01BFEE44FDFF89483002481
:1022700043464FF0804251460020CDE90067FFF70A
:1022800043FB43464FF0404251460020CDE90067F2
:10229000FFF73AFB641C032CEADB4FF4FA64204698
:1022A00002F0FDFD0121322005F058F8204602F031
:1022B000F6FD0121D12005F051F840F6C41002F0DE
:1022C000EEFDD049C1F850A28A465C46DAF8800299
:1022D000CD4906F0ABFB214606F0AEFB06F0D5FD7E
:1022E000002800DA40420528F0DAFFF770FBC74803
:1022F000DFF814B300905B460190C54A19460020F0
:10230000FFF702FBB849C348CDE900015B46002254
:102310001946C148FFF7F8FA01210A2005F01EF816
:1023200040F6B83002F0BBFDCAF850B25E46D34664
:10233000DBF88002314606F079FB214606F07CFB93
:1023400006F0A3FD002800DA40420528F0DADFF8A5
:1023500094A204F02AFF04464845FADC06F095FDF5
:10236000213800D54042052818DB9D49204606F05B
:102370005DFB514606F092FBA84B024600933146A6
:1023800000200193FFF7C0FAE3E7CDE9006A314688
:102390009D4B00224846FFF7B7FA05E0DFF84C9264
:1023A000934CDFF844A29B4E10212046FEF7BFF964
:1023B0000028EAD08F4C009423464FF07E522146ED
:1023C00000200194FFF7A0FA009423460022214642
:1023D00089480194FFF798FA4FF47A7002F05FFD94
:1023E0000121332004F0BAFF4FF4FA6002F057FDE8
:1023F000C146DFF8148200244B464FF0804241462C
:102400000020CDE90067FFF77FFA4B464FF04042CE
:1024100041460020CDE90067FFF776FA641C032CE3
:10242000EADB4FF4FA6002F03AFD0121322004F0B9
:1024300095FFCDF800A0C146414643466D4A0020B5
:10244000CDF804A0FFF760FA75485F46CBF850025C
:10245000724C8046D7F88002414606F0E7FA2146E2
:1024600006F0EAFA06F011FD002800DA40420528DD
:10247000F0DAD046CDF800A049464B460022694824
:10248000CDF804A0FFF740FADFF86891DFF898A1D3
:1024900004F065FE834606F0F8FC453800D540425E
:1024A00005280ADA0121DC2004F058FF41F28830C7
:1024B00002F0F5FCC7F850520FE05146584606F0BE
:1024C000B5FA494606F0EAFA0246314600960B464E
:1024D00000200196FFF718FADAE7D7F880022146C4
:1024E00006F0AAFA06F0D1FC002800DA40420528DE
:1024F000F3DA4FF4FA7002F0D2FC444C4146CDE9D5
:1025000000842346494A0020FFF7FEF90094234641
:102510000022214646480194FFF7F6F9FEE7DFF86E
:10252000ECA0CDF800A051460B46424A4248CDF8F7
:1025300004A0FFF7E9F933493348C1F8500288464F
:10254000D8F88002304906F071FA344906F074FA7E
:1025500006F09BFC002800DA40420528F0DA3846F5
:1025600002F09DFC0121042004F0F8FE584602F020
:1025700096FCDFF8C8B040215846FEF7D8F8DFF8DF
:10258000C090074689F800601A484646C8F86402B9
:1025900040215846FEF7CBF8B842F9D0B346C6F80A
:1025A000645289F80050DFF8749000214B46CDF852
:1025B00000900E4A0846CDF80490FFF7A5F90121D6
:1025C0004E2004F0CBFE4FF4AF6002F068FC3321E4
:1025D0001C4802F0C1FD1C4F3D70002636E0000093
:1025E00000000442000070C100007042000080BF83
:1025F000001801400000A0419A997940000016435C
:1026000000004843189800200000B4420000C8426F
:102610000000A0C10000F041000020C100002041E6
:1026200000008743000090C000008A42000062C39F
:102630000000A0420080D343000054420008014043
:10264000BA00002000500040A00000204FF4AF78F6
:102650001BE03878342808D15EB101214D2004F008
:102660007DFE404602F01BFC3D70387835280CD1C9
:1026700001E00126F8E7002E7ED00121632004F05E
:102680006DFE404602F00BFC3D7038783628E0D1F4
:1026900038783628FCD10121042004F05FFE4FF485
:1026A000FA6002F0FCFBF74E00963346F64A3146DC
:1026B00000200196FFF728F90121142004F04EFEB6
:1026C000F249F34F00910B46002238460191FFF783
:1026D0001BF9CDE9006A5346EE4A31463846FFF70A
:1026E00013F9ED485F46CBF8500282464E46D7F8C4
:1026F0008002514606F09AF9314606F09DF906F03F
:10270000C4FB002800DA40420528F0DAFFF701FA9E
:10271000C7F850A2E148D0F88002DF4906F086F9F8
:10272000B346314606F088F906F0AFFB002800DA20
:1027300040420528EEDADA4E00963346D94A314651
:1027400000200196FFF7E0F8D74F00963B460022A5
:102750003146D6480196FFF7D7F8DFF85493B846CC
:10276000D44E04F022FD07464845FADC06F08DFB06
:10277000213800D5404200E011E002281BDBCE49A1
:10278000384606F053F9CD4906F088F9024633463B
:102790000096414600200196FFF7B6F8E1E70126D2
:1027A00072E7BA483146CDE9006053460022C4487A
:1027B000FFF7AAF800E0C2461021C248FDF7B7FFB4
:1027C0000028EED0C04C009423464FF07E522146A4
:1027D00000200194FFF798F8009423460022214638
:1027E000BA480194FFF790F84FF47A7002F057FB63
:1027F0000121332004F0B2FD4FF4FA6002F04FFBE8
:10280000B34FDFF8D0820024AA4E43464FF08042F7
:1028100051460020CDE90067FFF776F84346CDE941
:102820000067B20251460020FFF76EF8641C032CCB
:10283000EADB4FF4FA64204602F031FB012132203A
:1028400004F08CFD204602F02AFB0121D12004F087
:1028500085FD40F6C41002F022FB90498E48C1F875
:1028600050025C468D48D0F880028B4906F0DEF8B5
:10287000214606F0E1F806F008FB002800DA4042A5
:102880000528EFDAFFF7A3F885480090534601903A
:10289000914A19460020FFF737F8DFF8F0B1854874
:1028A000CDE9000B5346002219468C48FFF72CF85F
:1028B00001210A2004F052FD40F6B83002F0EFFA90
:1028C00004F073FC04464845FADC06F0DEFA2138D1
:1028D00000D54042052818DB7749204606F0A6F8C7
:1028E000764906F0DBF87E4B024600935146002005
:1028F0000193FFF709F8E3E751464B460022704881
:10290000CDE900ABFFF700F803E0D1466D4CDFF8EE
:10291000A4A110212046FDF70AFF0028ECD06A4C44
:10292000009423464FF07E52214600200194FEF78A
:10293000EBFF009423460022214664480194FEF7F1
:10294000E3FF4FF47A7002F0AAFA0121332004F079
:1029500005FD4FF4FA6002F0A2FA00245646434601
:102960004FF0804249460020CDE90067FEF7CCFFDA
:1029700043464FF0404249460020CDE90067FEF74C
:10298000C3FF641C032CEADB4FF4FA6002F087FA01
:102990000121322004F0E2FCDFF82CA14B46D8469E
:1029A000CDF800B04C46524619460020CDF804B090
:1029B000FEF7AAFF394FC7F85042A146484CD7F856
:1029C0008002494606F032F8214606F035F806F056
:1029D0005CFA002800DA40420528F0DACDF80080E1
:1029E00049464B4600223F48CDF80480FEF78CFF55
:1029F000DFF8F49004F0B3FB834606F046FA45385E
:102A000000D5404205280ADA0121DC2004F0A6FCAA
:102A100041F2883002F043FAC7F850520FE04946BD
:102A2000584606F003F8514606F038F8024631469B
:102A300000960B4600200196FEF766FFDAE7D7F80E
:102A40008002214605F0F8FF06F01FFA002800DAA0
:102A500040420528F3DA4FF4FA7002F020FA104CE5
:102A60004146CDE900842346204A0020FEF74CFF72
:102A700000942346002221461D480194FEF744FF9E
:102A8000FEE700000000484200000CC20000704257
:102A90000000DC420000E6C20000874318980020D6
:102AA0000000C842000002C30000B44200005CC243
:102AB000000016440000F04100000442000070C114
:102AC000000080BF001801400000A0413333734074
:102AD00000001643000048430000A0C1000020C1D0
:102AE00000002041000090C000008A42000046C360
:102AF00000009EC22DE9FC5FFF4FFE4CDFF8FCB3E7
:102B0000009439463B465A4600200194FEF7FCFEED
:102B100001212C2004F022FC40F6C41002F0BFF981
:102B2000DFF8DCA320215046FDF701FEDFF8D49347
:102B30004FF00108060089F80080F34D01D03803FA
:102B400001E04FF04040C5F8600220215046FDF7FB
:102B5000EEFDB042F9D00026C5F8606289F8006049
:102B60004046DFF8A88388F800003D465F46DFF85E
:102B7000A093DFF8A0A304F0F2FA834606F085F9EB
:102B8000A23800D54042052809DA88F8006004F030
:102B900039FCBDE8FC5F4FF4FA6002F080B94946A9
:102BA000584605F043FF514605F078FFCDE9007423
:102BB000024629462B460020FEF7A6FEDBE72DE95C
:102BC000FC47D54CCC4F00942346D44A39460020CC
:102BD0000194FEF799FE00943B4600222146D0481E
:102BE0000194FEF791FECF4EDFF83C83C14CC34DFC
:102BF00004F0DBFA814606F048F9253800D540425A
:102C0000022818DB3146484605F010FF414605F022
:102C100045FFCDE90054024639463B460020FEF709
:102C200073FEE5E7CDE9005429463B4600223046D5
:102C3000FEF76AFE02E0BD4EDFF8F4821021404646
:102C4000FDF775FD0028EDD0BA49CDE900544E02DC
:102C50003B4600223046FEF757FE4FF47A7002F0F2
:102C60001EF9B146B44EDFF8D48200244FF0404A3A
:102C7000CDE9005643464A4639460020FEF744FE59
:102C8000CDE900564346524639460020FEF73CFE49
:102C9000641C032CECDBBDE8FC474FF4FA6002F047
:102CA000FEB82DE9FC5F0121E12004F057FB4FF451
:102CB000FA66304602F0F3F8DFF85C82DFF838920B
:102CC00000234446CDF800801A464D4649469C48AC
:102CD000CDF80480FEF718FE002100942B46994A97
:102CE00008460194FEF710FE701002F0D8F801219A
:102CF000DD2004F033FB40F6B83B584602F0CFF835
:102D00000121DC2004F02AFB304602F0C8F8DFF88D
:102D100038A23121504602F01FFA8C4F00263E7037
:102D2000744C8B4D38780028FCD0387837286CD01C
:102D30003878382873D0387839287ED038783028D9
:102D40006BD03878322872D038783328EAD13E7088
:102D50003221504602F000FA7E4804F0AFFB7E4973
:102D60007C4804F0F2FF7DA332221E21794804F052
:102D7000E8FE784804F0D1FB0121DB2004F0EEFAF4
:102D80005E46584602F08BF83721504602F0E4F9CF
:102D90004FF47A77384602F082F80121DA2004F005
:102DA000DDFA304602F07BF83821504602F0D4F9C3
:102DB000384602F074F80121DD2004F0CFFA3046E5
:102DC00002F06DF83121504602F0C6F904F01AFB0A
:102DD000384602F064F800214646CDF800804F46A0
:102DE0004B46614A0846CDF80480FEF78DFD00236E
:102DF00000961A4639465D480196FEF785FD3F4E1E
:102E0000DFF82891DFF8288127E0009429462B4637
:102E1000574A019408E002E00FE015E007E0554A48
:102E2000009429462B4601940020FEF76DFD3E706C
:102E30003121504602F090F974E7009429462B4660
:102E400000224C480194F0E7009429462B460022CA
:102E500047480194E9E7FEF757FD10214046FDF78A
:102E600066FCCDE9006400284FF000013B464A466D
:102E70000846F0D1FEF748FDBA462F464D4607E01A
:102E8000CDE900645346002239462846FEF73CFD52
:102E900010214046FDF74BFC0028F1D00121E02035
:102EA00004F05CFABDE8FC5F41F2883001F0F7BF46
:102EB00070472DE9FC5F0121002004F04FFA4FF428
:102EC0007A6001F0ECFF0121BE2004F047FA40F6E1
:102ED000B83001F0E4FF084C064E164D04F03FF9FF
:102EE000074605F0D2FFBC3800D5404205287CDA01
:102EF000202141E0000070420000B4420000F04197
:102F000000080140B900002018980020BA000020F5
:102F100000002243000070410000C842000016C3B8
:102F2000000070C200001442000070C1000080BFA9
:102F3000001801400000A041000016430000484373
:102F4000000058410000084200500040A00000204E
:102F50000000204194940020F2AE00084F4B4F4BEC
:102F60004F4B4F4B0000000000000CC2000020C17E
:102F70009A99993E9A9999BEDFF804944846FDF7CC
:102F8000D6FBDFF800840121074688F80010DFF83F
:102F9000FCA3FD49CAF8601220214846FDF7C7FB93
:102FA000B842F9D04FF00009CAF8609288F8009052
:102FB000F748CDE90006A346214623464A464FF08E
:102FC0004140FEF7A1FCF248F24FCDE900702946DE
:102FD0002B4600224FF07C50FEF796FC01216E201C
:102FE00004F0BCF940F6B83000E00BE001F057FF08
:102FF0004FF47A7001F053FF0024DFF89CA3DFF850
:103000009C832DE0E649384605F010FDE54905F0C2
:1030100045FDCDE900560246214623460020FEF735
:1030200073FC5BE7022C09D0062C14D0C4B1DE4837
:1030300029462B460022CDE9007630E0012172209E
:1030400004F08CF94FF4E16001F029FF29462B468A
:103050000022D648EFE729462B460022D448EAE76B
:1030600004F07DF8009005F010FFBC3800D5404218
:10307000052807DA082C2CD2DFE804F02B142B2BC0
:103080002B2B1922C649009805F0D0FCC54905F044
:1030900005FDCDE90056024659465B460020FEF785
:1030A00033FCDDE729462B460022C2480CE0CDE97F
:1030B0000076002229462B461046FEF725FC10E03C
:1030C000002229462B461046CDE90076FEF71CFC6F
:1030D0000FE0022C02D0062C03D00AE0012173205D
:1030E00001E00121772004F039F94FF4E16001F0AB
:1030F000D6FE88F800903121504602F02DF8404667
:1031000001780029FCD00078332808D098F8001006
:103110004046342902D00078352866D0FFE0022CE2
:1031200002DA01216F2009E0A01E042802D2012149
:10313000742003E0062C07DB0121782004F00EF94F
:1031400040F6AC5001F0ABFE3321504602F004F8DB
:1031500088F8009098F800003128FBD1022C02DAA0
:103160000121702009E0A01E042802D2012175204F
:1031700003E0062C07DB0121792004F0EFF84FF47F
:103180007A6001F08CFE4FF4FA7001F088FE322173
:10319000504601F0E1FF404688F80090017831295F
:1031A000FCD1022C0ADA0121712004F0D7F840F694
:1031B000B83001F074FE01216E20AAE0A01E0428A0
:1031C0000AD20121762004F0C9F840F6B83001F0A7
:1031D00066FE012173209CE0062C7DDB01217A2014
:1031E00004F0BCF840F6B8308FE0734804F066F99C
:1031F0007249714804F0A9FD71A3322200216E4882
:1032000004F09FFC6C4804F088F9022C0BDACDE93D
:10321000007629462B464FF03F426D48FEF774FB7F
:1032200001216F201BE0A01E04280BD2CDE90076FF
:1032300029462B4600224FF03F40FEF765FB012157
:10324000B8200CE0062C10DBCDE9007629462B4691
:10325000604A4FF07C50FEF757FB0121B92004F083
:103260007DF84FF47A6001F01AFE3321504601F0E8
:1032700073FF88F8009098F800003128FBD1022CE9
:1032800004DBA01E042801D3062C07DB0121B42097
:1032900004F064F84FF47A6001F001FE4FF4966098
:1032A00001F0FDFD3221504601F056FF404688F8FE
:1032B000009001783129FCD14FF4FA7001F0EFFD54
:1032C000022C0CDA0121B52004F048F841F28830D4
:1032D00001F0E5FD012100E021E0B62019E0A01E8B
:1032E00004280AD20121B52004F038F841F28830D0
:1032F00001F0D5FD0121B7200BE0062C0FDB0121E9
:10330000B52004F02BF841F27C5001F0C8FD0121FA
:10331000772004F023F840F6AC5001F0C0FD641CA7
:10332000082CFFF67FAE5046BDE8FC5F322101F06D
:1033300013BF2DE9FC5F0121002004F00FF841F2DA
:10334000883001F0ACFD0121BE2004F007F840F602
:10335000C41001F0A4FD0E4E1F4D204C03F0FFFEE3
:10336000074605F092FDBC3800D5404205286ADAD0
:10337000DFF80C8020214046FDF7D9F907462FE001
:1033800000080140B90000200000404018980020CB
:10339000000070420000204200500040A0000020C9
:1033A00000003C4300007041000018C1000050C103
:1033B000000040C1CDCC4C3F949400201CA50008D7
:1033C0007975616E6875616E5F67657400000000F5
:1033D000CDCC4CBF9A9999BE0000A0410000B442E8
:1033E000DFF8AC92012189F80010DFF8ACA2A949FE
:1033F000CAF8601220214046FDF799F9B842F9D089
:103400004FF00008CAF8608289F800800096A34651
:103410002146234642464FF082400196FEF774FA59
:1034200001216E2003F09AFF40F6B83001F037FD1D
:103430004FF47A7001F033FD0024DFF860A2DFF86A
:103440006092984F2DE09849384605F0EFFA974979
:1034500005F024FBCDE90056024621462346002014
:10346000FEF752FA7AE7022C09D0062C14D0C4B128
:103470008F4829462B460022CDE900A62DE00121E8
:10348000722003F06BFF4FF4E16001F008FD294664
:103490002B4600228748EFE729462B460022864824
:1034A000EAE703F05CFE009005F0EFFCBC3800D5C5
:1034B0004042052804DA022C12D0062C13D01AE060
:1034C0007949009805F0B2FA784905F0E7FACDE9B4
:1034D0000056024659465B460020FEF715FAE0E723
:1034E0000121732001E00121772003F037FF4FF421
:1034F000E16001F0D4FC3121484601F02DFE87F84F
:10350000008038780028FCD03878332806D0387806
:1035100034286BD03878352872D067E0022C02DA74
:1035200001216F2009E0A01E042802D2012174208D
:1035300003E0062C07DB0121782003F00FFF40F6A3
:10354000AC5001F0ACFC3321484601F005FE87F891
:10355000008038783128FCD1022C02DA0121702059
:1035600009E0A01E042802D20121752003E0062CE8
:1035700007DB0121792003F0F1FE4FF47A6001F0BE
:103580008EFC4FF4FA7001F08AFC3221484601F0BB
:10359000E3FD87F8008038783128FCD1022C71DAFD
:1035A0000121712003F0DAFE40F6B83001F077FC1B
:1035B00001216E2014E00121762003F0CFFE40F6B9
:1035C000B83001F06CFC0121732009E001217A2060
:1035D00003F0C4FE40F6B83001F061FC0121772011
:1035E00003F0BCFE40F6AC5001F059FC641C082C02
:1035F000FFF639AF4846BDE8FC5F322101F0ACBDB3
:10360000022C02DA01216F2009E0A01E042802D258
:103610000121742003E0062C07DB0121782003F050
:103620009DFE40F6AC5001F03AFC3321484601F0D3
:1036300093FD87F8008038783128FCD1022C02DA1B
:103640000121702009E0A01E042802D2012175206A
:1036500003E0062C07DB0121792003F07FFE4FF405
:103660007A6001F01CFC4FF4FA7001F018FC322172
:10367000484601F071FD87F8008038783128FCD188
:103680008CE7FFE7A01E042895D3062C9EDAADE751
:10369000B9000020000040C018980020000020421F
:1036A00000500040A000002000003C43000070419A
:1036B00000001041000050410000404170B5D54D60
:1036C00040F2255421462846FEF7EEF820B1284660
:1036D000FEF783F8D049087021462846BDE87040BF
:1036E000FEF701B910B5CD4C40F224412046FEF75B
:1036F000DBF800281ED02046FEF76FF8C848C16BE3
:10370000026C1144426C836C1A441144A831426D1E
:10371000C9B291420FD1416C806C41EA002005F0A2
:10372000AFFB6FF00E0105F0F7F9BE4905F084F923
:10373000BD49086010BDBD4C00212046FCF7FDFED0
:10374000BA4A1621303A51632046BDE810400121A3
:10375000FCF7F3BE10B5B64C40F225512046FEF7FB
:10376000A3F8002806D02046FEF737F805F088FBBE
:10377000B049086010BD70B5AF4D40F225542146E8
:103780002846FEF791F820B12846FEF726F8AB4907
:10379000087021462846BDE87040FEF7A4B870B511
:1037A000A74D40F2255421462846FEF77DF820B16A
:1037B0002846FEF712F89849087021462846BDE8C9
:1037C0007040FEF790B810B59E4C01212046FDF7E1
:1037D000F8FE002807D002F03EF92046BDE8104070
:1037E0000121FDF7FABE10BD70B501218D072846F5
:1037F000FDF7E7FE002836D02888934E0009934C49
:10380000C0071CD029882846C90612D52168491E40
:103810002160FDF7C8FE0146206800EB800201EB45
:103820008221F26F891A40F6B832D14201DA401C87
:1038300020602846BDE870400121FDF7CEBE20681B
:10384000401C20602846FDF7AEFE216801EB810296
:1038500000EB8220F26F801A40F6B8329042E8DD29
:10386000491E2160E5E770BD70B5794D01212846FC
:10387000FDF7A7FE002838D02888734E0009754C44
:10388000C0071DD029882846C90613D52168491EBE
:103890002160FDF788FE0146206800EB800201EB05
:1038A0008221D6F81021891A40F6B832D14201DAC5
:1038B000401C20602846BDE870400121FDF78DBE08
:1038C0002068401C20602846FDF76DFE216801EB52
:1038D000810200EB8220D6F81021801A40F6B8321F
:1038E0009042E7DD491E2160E4E770BD70B55A4D96
:1038F00001212846FDF765FE002838D02888524E61
:103900000009564CC0071DD029882846C90613D582
:103910002168491E2160FDF746FE0146206800EB44
:10392000800201EB8221D6F8A421891A40F6B83230
:10393000D14201DA401C20602846BDE870400121D8
:10394000FDF74BBE2068401C20602846FDF72BFE8B
:10395000216801EB810200EB8220D6F8A421801AB5
:1039600040F6B8329042E7DD491E2160E4E770BDC1
:1039700070B53B4D01212846FDF723FE002838D0C5
:103980002888314E0009374CC0071DD029882846A9
:10399000C90613D52168491E2160FDF704FE0146C2
:1039A000206800EB800201EB8221D6F83822891AC8
:1039B00040F6B832D14201DA401C20602846BDE80A
:1039C00070400121FDF709BE2068401C2060284698
:1039D000FDF7E9FD216801EB810200EB8220D6F8BA
:1039E0003822801A40F6B8329042E7DD491E216045
:1039F000E4E770BD7047FEE7FEE7FEE7FEE77047CD
:103A000010B500F0D6FD012803D0BDE8104001F04C
:103A1000DEB910BD00380140A2000020004800407F
:103A200028950020000034439C0000203000024014
:103A3000004C00409800002000500040A0000020F2
:103A4000004400400010004018980020A40000200E
:103A500000040040A800002000080040AC00002046
:103A6000000C0040B000002000F108014FF0FF32D0
:103A7000C0E90112C16001610021016070470021AD
:103A80000161704742684A6093688B60936859602F
:103A9000916008610168491C0160704730B50C688D
:103AA000621C02D000F1080202E0026904E01A463A
:103AB00053681D68A542FAD953684B6099608A60C3
:103AC000516008610168491C016030BDD0E90132D4
:103AD00001699A60D0E901235A604A68824201D1A3
:103AE00082684A60002202610868401E08607047D0
:103AF0002DE9F041054601F03FF9FE4EB068401C4B
:103B0000B0603068FC4F10B1706930B32BE03560A5
:103B1000B068012827D1002404EB840007EB800063
:103B2000FFF7A2FF641C202CF6D3F448FFF79CFF9C
:103B3000F2481430FFF798FFF0482830FFF794FF61
:103B4000EE483C30FFF790FFEC485030FFF78CFF19
:103B5000EA4870631430B06305E03068E96AC06A0F
:103B6000884200D83560706A0121401C7062E86AA2
:103B7000326981401143316100EB800007EB800026
:103B8000291DFFF77FFF01F011F9706900280CD0A3
:103B90003068E96AC06A884207D2D9494FF080503C
:103BA0000860BFF34F8FBFF36F8FBDE8F0812DE941
:103BB000FF5F8346DDE90E87994616468A469000E8
:103BC00000F084FF05001AD04C2000F07FFF0400B5
:103BD00012D025630021CDE90241CDE900874B4693
:103BE00032465146584600F0ADFE2046FFF780FFB2
:103BF000012004B0BDE8F09F284600F0D2FF4FF04E
:103C0000FF30F6E770B5044601F0B6F8B94D04B9D7
:103C10002C68201DFFF75AFF58B9E06AB64A00EB3E
:103C2000800152F8211021B901218140286988437F
:103C30002861A06A18B104F11800FFF747FF686A0D
:103C4000401C68622868844208D1AC48211D3C3081
:103C5000FFF718FF6868401C686007E0A868401E0E
:103C6000A860204600F0BFFE00F0B0FE01F09EF814
:103C70006869002812D0286884420FD1286B28B1C7
:103C800040F265429FA1A6A005F094FB9C494FF02D
:103C900080500860BFF34F8FBFF36F8F70BD2DE969
:103CA000F041944F0026386B38B1B869401CB861B8
:103CB000F86900B10126304677E7FD686D1CFD60AC
:103CC00011D1786B006828B140F6D9128DA194A06B
:103CD00005F070FB786BB96B7963B863386A401C88
:103CE000386200F073FEB86ADFF80C82854209D3AF
:103CF000786B006880B1786BC068C4686068854282
:103D00000DD2B8623868C06A00EB800158F8210013
:103D10000128CDD90126CBE74FF0FF30F1E7201D78
:103D2000FFF7D4FEA06A18B104F11800FFF7CEFE29
:103D3000E06A01213A6981401143396100EB800159
:103D400008EB8100211DFFF79DFEE06A3968C96A12
:103D50008842CDD30126CBE72DE9F047654D0024FD
:103D60002746286B28B94FF4FD6266A16CA005F0C8
:103D700021FB01F001F8286B401E2863286BE0BB93
:103D8000A8685E4928310126B8B3DFF86C918846EF
:103D9000D8F80010E9B1D8F80C00C46804F1180094
:103DA000FFF794FE201DFFF791FEE06A2A6906FAEC
:103DB00000F11143296100EB800109EB8100211D15
:103DC000FFF760FEE06A2968C96A8842E0D3EE61C5
:103DD000DEE70CB100F0FAFDAC693CB1FFF75FFF24
:103DE00000B1EE61641EF9D10020A861E86920B13C
:103DF000434901273807086000E003E0BFF34F8F15
:103E0000BFF36F8F00F0D2FF3846BDE8F0872DE991
:103E1000F041384E0F460446F5683068001DFFF744
:103E200055FE38B9306890F82C100120884031696F
:103E300081433161601C08D13FB13168BDE8F04178
:103E40002E485030091DFFF71DBE30682C44AC428F
:103E50004460316805D2B06BBDE8F041091DFFF741
:103E60001DBE706B091DFFF719FEB06A844200D2B7
:103E7000B4629AE61F48016B491C016370472DE943
:103E8000F0410E4605004FF0000405D140F27942A2
:103E90001CA123A005F08EFA2EB940F27A4219A196
:103EA0001FA005F087FA134F386B28B140F27B4210
:103EB00014A11BA005F07EFAFFF7DCFFFA68286862
:103EC0008119904202D9884202D804E0884201D880
:103ED000914200D9012429601CB1881A0021FFF702
:103EE00096FFFFF739FF002826D105494FF0805093
:103EF00008601DE038000020B001002030040020E0
:103F000004ED00E02E2E5C2E2E5C46726565525448
:103F10004F535C7372635C7461736B732E63000048
:103F20004572726F723A25732C25640D0A000000E9
:103F3000BFF34F8FBFF36F8F37E610B5040014D077
:103F4000FE49096B39B140F2CF42AFF24801AFF2FE
:103F5000300005F02FFAFFF78DFF00212046FFF714
:103F600056FFFFF7F9FE002807D1F5494FF08050C2
:103F70000860BFF34F8FBFF36F8F10BD70B50500A2
:103F800007D140F2FB42AFF28401AFF26C0005F0C2
:103F900011FAEA4E3068854201D1002070BD00F070
:103FA000EBFE6C6900F002FF706B844202D0B06BD4
:103FB000844201D1022070BDE248844204D1A86A43
:103FC0000028F7D1032070BDDE481438844202D0A7
:103FD0000CB1012070BD042070BD10B5044600F086
:103FE000CBFE0CB9D5480468E46A00F0DFFE204639
:103FF00010BD10B5044600F0FEFE5020EFF3118115
:1040000080F31188BFF34F8FBFF36F8F0CB9CB488C
:104010000468E06A81F3118810BD2DE9F0410026A3
:104020000D460446202908D34FF4B062AFF22C119C
:10403000AFF2141005F0BEF91F2500F09DFEBF4F32
:1040400004B93C68E06AA8423BD03968854206D989
:104050008C4207D03968C96AA94202D902E08C4271
:1040600000D101268046E562A069002802DBC5F187
:104070002000A061B44D08EB8800616905EB800069
:10408000814215D1201DFFF721FD012120B93A6998
:1040900001FA08F082433A61E06A3A6981401143CB
:1040A000396100EB800005EB8000211DFFF7EAFC81
:1040B0003EB1A3494FF080500860BFF34F8FBFF36C
:1040C0006F8FBDE8F04100F071BE70B59B4D286B5D
:1040D00010B10120E86170BD0020E86128699A4EA6
:1040E000B0FA80F0C0F11F0000EB800456F8240005
:1040F00038B940F6F622AFF2F411AFF2DC1005F059
:1041000059F906EB840000F10802416849684160F2
:10411000914201D149684160C868286070BD70B59E
:10412000044600F029FE854D04B92C68201DFFF7D8
:10413000CDFC58B9E06A844A00EB800152F82110A6
:1041400021B901218140286988432861A06A18B1FA
:1041500004F11800FFF7BAFC211D7A48FFF792FC22
:1041600000F024FE686928B100F006FE00F02EFC85
:1041700000F01CFE2868844213D1686990B1286B56
:1041800038B140F25762AFF28421AFF26C2005F0F3
:1041900011F96B494FF080500860BFF34F8FBFF3A8
:1041A0006F8F70BD6748A9680068884202D10020FF
:1041B000286070BDBDE8704087E770B50025040039
:1041C00007D140F28162AFF2C421AFF2AC2005F01A
:1041D000F1F85C496069884205D1A06A28398842B3
:1041E00001D000B90125284670BD70B504002BD060
:1041F000524D2868844231D000F0BEFD2046FFF7C2
:10420000DCFFE8B1201DFFF761FCE06A01212A69AB
:104210008140114329614C4900EB800001EB800093
:10422000211DFFF72FFCE06A2968C96A884207D37D
:1042300043494FF080500860BFF34F8FBFF36F8F3B
:10424000BDE8704000F0B2BD40F2AB62AFF24C315D
:10425000AFF23430BDE8704005F0ACB870BD2DE968
:10426000F0410026040007D140F2E262AFF26C3167
:10427000AFF2543005F09EF800F0BDFD5020EFF392
:10428000118580F31188BFF34F8FBFF36F8F2046E6
:10429000FFF793FFF0B1294F386B20B1294804F1A3
:1042A0001801283814E0E06A3968C96A884200D3E6
:1042B0000126201DFFF70AFCE06A01213A698140CE
:1042C00011433961204900EB800001EB8000211D82
:1042D000FFF7D8FB85F31188304666E41A4E4FF09D
:1042E0008054174D00F089FB30680128FAD92C6002
:1042F000BFF34F8FBFF36F8FF4E71CB50F48002457
:104300002C30CDE900402346802210A11148FFF750
:104310004EFC01280CD0401C2BD140F28472AFF22D
:104320001C41AFF2044002B0BDE8104005F042B8B5
:10433000502080F31188BFF34F8F0DE0380000202C
:1043400004ED00E080040020B001002049444C4509
:1043500000000000DD420008BFF36F8FFF484FF000
:10436000FF31816201214161C460BDE81C4000F061
:10437000C1BC1CBD502080F31188BFF34F8FBFF329
:104380006F8FF6490020486100F0EABCF348C0682E
:10439000704710B500F02FFDF048C06810BDEF4821
:1043A0008068704710B510B104461CB10AE0EB48B4
:1043B0000468FAE740F68C02AFF2B841AFF2A040D1
:1043C00004F0F8FF04F1340010BD70B50D46040090
:1043D00007D140F60632AFF2D441AFF2BC4004F050
:1043E000E9FFDE48016820461831FFF757FB2846F1
:1043F000BDE8704001210AE52DE9F04117460E465F
:10440000050007D140F61732AFF20851AFF2F04085
:1044100004F0D0FFD14C206B38B940F61B32AFF21C
:104420001C51AFF2045004F0C5FF216846F0004073
:104430008861216828461831FFF724FB3846BDE81B
:10444000F0410121E3E42DE9F041C068C4683CB9C2
:1044500040F66132AFF25451AFF23C5004F0AAFF83
:1044600004F118000746FFF731FBBC4D286B01260D
:1044700058B13946BA48FFF705FBE06A2968C96AAE
:10448000884212D90120EE6116E4201DFFF71EFBC1
:10449000E06A2A6906FA00F111432961B14900EB8B
:1044A000800001EB8000211DE5E7002004E470B5E9
:1044B000AA4D06460C46286B38B940F69932AFF241
:1044C000BC51AFF2A45004F075FF44F000403060DE
:1044D000F4683CB940F6A132AFF2D851AFF2C05007
:1044E00004F068FF3046FFF7F1FA201DFFF7EEFAFF
:1044F000E06A01262A6906FA00F111432961994907
:1045000000EB800001EB8000211DFFF7BBFAE06AA1
:104510002968C96A884202D90120EE6170BD002075
:1045200070BD10B5040007D140F6C132AFF22C6166
:10453000AFF2146004F03EFF8848016A2160C06851
:10454000606010BD70B50D46040007D140F6CB3257
:10455000AFF25061AFF2386004F02CFF3DB940F685
:10456000CC32AFF26061AFF2486004F023FF00F09C
:1045700003FC7A4AD06829684B1C0FD02368126A62
:10458000934202D0626882420AD96268801A8842E5
:1045900006D2081A28602046FFF7C3FF002400E077
:1045A000012400F003FC204670BD6C490120C86165
:1045B00070476A48416919B1006B18B10020704713
:1045C0000120704702207047644908680A688069C2
:1045D000D26A0968C2F120028A61704770B50C4640
:1045E000064600F0C9FB5D4D2868406C80B929681B
:1045F000012081F848005CB101212046FFF707FC4B
:1046000059494FF080500860BFF34F8FBFF36F8F51
:1046100000F0CCFB00F0B0FB2868446C002034B103
:1046200016B12968486402E02A68611E516429684D
:1046300081F8480000F0BAFB204670BD2DE9F0413A
:104640001E4615468846074600F096FB434C2068F8
:1046500090F84800022814D02068416CB9434164A6
:104660002168012081F848005EB101213046FFF742
:10467000CEFB3D494FF080500860BFF34F8FBFF332
:104680006F8F00F093FB00F077FB15B12068406C52
:104690002860206890F8480001280DD02068416CFF
:1046A00021EA0801416401252168002081F84800C1
:1046B00000F07CFB28463FE40025F5E72DE9F041BA
:1046C0001F4690460D4604004FF0010607D141F207
:1046D000FD02AFF2D071AFF2B87004F06BFE00F0E3
:1046E0004BFB0FB1606C386094F84800022184F8ED
:1046F0004810B8F1050F0ED2DFE808F00D03060CE4
:104700000A00616C294301E0616C491C616402E0AC
:10471000022803D06564012802D033E0002631E08E
:10472000201DFFF7D3F90D4DE06A01212A69814070
:10473000114329610B4900EB800001EB8000211D32
:10474000FFF7A0F9A06A38B141F23512AFF64C017B
:10475000AFF6340004F02EFEE06A07E038000020D7
:1047600058040020B001002004ED00E02968C96A67
:10477000884207D9B4494FF080500860BFF34F8F8B
:10478000BFF36F8F00F012FB3046A6E52DE9F0472E
:104790001F46DDF8209092460D4604004FF00108B8
:1047A00007D141F26812AFF6A401AFF68C0004F015
:1047B00001FE00F020FB5020EFF3118680F31188FA
:1047C000BFF34F8FBFF36F8F0FB1606C386094F8F9
:1047D0004800022184F84810BAF1050F0ED2DFE834
:1047E0000AF00D03060C0A00616C294301E0616CBC
:1047F000491C616402E0022803D06564012803D0EB
:1048000031E04FF000082EE0A06A38B141F2AF125B
:10481000AFF61011AFF6F80004F0CCFD8B4D286B0D
:10482000012778B104F118018948FFF72BF9E06AF4
:104830002968C96A884216D9B9F1000F12D0C9F89F
:10484000007010E0201DFFF741F9E06A2A6907FABD
:1048500000F11143296100EB80017E4800EB8100EB
:10486000211DE2E7EF6186F311884046BDE8F0873D
:104870002DE9F0418846040007D141F2E312AFF67A
:104880007C11AFF6641004F095FD00F0B4FA5020EE
:10489000EFF3118780F31188BFF34F8FBFF36F8F52
:1048A00094F84800022184F84810616C491C616446
:1048B00001282ED1A06A38B141F20922AFF6BC110D
:1048C000AFF6A41004F076FD604D286B012678B198
:1048D00004F118015E48FFF7D5F8E06A2968C96A53
:1048E000884216D9B8F1000F12D0C8F8006010E065
:1048F000201DFFF7EBF8E06A2A6906FA00F1114380
:104900002961544900EB800001EB8000211DE2E7A2
:10491000EE6187F31188E0E410B558B1044600F069
:104920002BFA94F84800022807D0002400F03EFA41
:10493000204610BD45480468F1E7002084F848008F
:104940000124F3E72DE9F0470E46DDE909848246AC
:104950006FF00301206B01EB82010844089D20F0F9
:1049600007079946780705D040F22B323AA141A0BB
:1049700004F020FD00202218315C82F83410315CF4
:1049800011B1401C1028F6D3002684F84360202D76
:1049900000D31F25201DE562FFF771F804F1180010
:1049A000FFF76DF82461C5F120006462A0616664C0
:1049B00084F848604A465146384600F07EF9206047
:1049C000B8F1000F01D0C8F800404FE71F48416B15
:1049D000096829B1416BC968C96849688162704733
:1049E0004FF0FF31FAE710B50446006B00F0D9F83C
:1049F0002046BDE8104000F0D4B870B5144E134DF9
:104A000014361CE0FFF736FA306820B10024FFF7B7
:104A1000A3F9A4B901E00124F9E700F0ADF9F068C9
:104A2000C468201DFFF752F8A868401EA860686897
:104A3000401E686000F0BAF92046FFF7D4FF6868AE
:104A40000028DFD170BD000004ED00E03800002038
:104A500058040020B00100202E2E5C2E2E5C4672E1
:104A6000656552544F535C7372635C7461736B730E
:104A70002E6300004572726F723A25732C25640D07
:104A80000A00000030B5744900E011460A6882420D
:104A9000FBD34B685C18844203D1406818444860DB
:104AA000084643681C18944209D16B4C103C24689A
:104AB000A24209D052681A4442600A681268026031
:104AC000814200D0086030BD0460F9E72DE9F04173
:104AD00005460026FFF7CEF95F4F103F386808B94A
:104AE00000F098F8F86805424ED1002D4CD00835FA
:104AF00068070BD005F00700C0F1080005446807FF
:104B000004D0BF2255A15FA004F054FC002D3BD07F
:104B10007868854238D850490846046801E0214643
:104B200004466068A84202D220680028F7D138689D
:104B3000B846844228D00E6820680860606808364D
:104B4000401B10280ED96719780704D0EC2243A126
:104B50004CA004F02FFC6068401B7860384665600C
:104B6000FFF790FF6168D8F804004246401AC8F881
:104B70000400D8F80830984200D29060D8F80C00B1
:104B800001430020C4E90001FFF7E6F8700705D0F3
:104B90004FF4967231A13BA004F00CFC3046BDE806
:104BA000F08170B500282BD02B4DA0F10804103DEA
:104BB0006068E968084205D14FF4A07227A131A0CE
:104BC00004F0F8FB206828B140F2411223A12DA087
:104BD00004F0F0FB6068E968084211D02268002AFE
:104BE0000ED188436060FFF745F960686968084442
:104BF00068602046FFF746FFBDE87040FFF7ACB89D
:104C000070BD1548103840687047134810388068E8
:104C1000704770471F484FF41041420706D0C01D2F
:104C20001C4920F00700411AC1F510410A4A00232F
:104C30000144C2E900030839103A21F0070111606C
:104C40004B600B600B1AC0E9001393604FF00040FB
:104C50005360D06070470000840000202E2E5C2E30
:104C60002E5C4672656552544F535C706F72745C73
:104C70004D656D4D616E675C686561705F342E6374
:104C8000000000004572726F723A25732C25640D86
:104C90000A0000009404002069484068401C04D0C9
:104CA000F42268A171A004F085FB502080F31188E4
:104CB000BFF34F8FBFF36F8FFEE710B5031F4FF0A9
:104CC00080741C601B1F21F001011960191F6B4BC0
:104CD0000B60143940380A6010BD69484FF47A718E
:104CE0000068B0FBF1F14FF0E020491E416107215F
:104CF000016170471CB5634908780190FF20087076
:104D000008788DF800009DF800004D4A00F0500032
:104D100010700720906007E09068401E90609DF83A
:104D2000000040008DF800009DF800000006F3D45C
:104D3000107A000200F4E060906001980870524818
:104D4000016841F470010160016841F07041016047
:104D5000FFF7C3FF00205060FBF708FA00201CBDDE
:104D600037484068B0F57A7F05D04FF4B57235A169
:104D70003EA004F01FBB7047502080F31188BFF3A2
:104D80004F8FBFF36F8F2E494868401C4860012841
:104D90000BD13D481C38006810F0FF0F05D04FF4D0
:104DA000BD7228A131A004F005BB704710B5244C9A
:104DB000606828B940F2811222A12CA004F0FAFA0E
:104DC0006068401E606001D180F3118810BD10B58D
:104DD000502080F31188BFF34F8FBFF36F8FFEF722
:104DE0005EFF20B128494FF080501C390860002038
:104DF00080F3118810BD10B5FBF7EEF9104C1028A8
:104E00000CD300F1E02090F8F0032178884205D21D
:104E10004FF42A720BA115A004F0CCFA1A481438EA
:104E20000068A16800F4E060884207D9BDE810403E
:104E30004FF42E7203A10DA004F0BCBA10BD000007
:104E40008C0000202E2E5C2E2E5C4672656552541E
:104E50004F535C706F72745C525644535C41524DB8
:104E60005F434D335C706F72742E63004572726FD6
:104E7000723A25732C25640D0A000000994C000835
:104E80000000002000E400E020ED00E003E00A2143
:104E9000491E89B2FCD2401E80B2F8D2704742F659
:104EA000E06303E01946491E89B2FCD2401E80B27D
:104EB000F8D2704708B527208DF8000000208DF843
:104EC00001008DF8020001208DF803006846FBF711
:104ED0004AFA08BD10B501218CB00846FBF7B0FDB9
:104EE000564C2046FBF792FA00211620CDE902101D
:104EF000534801900A9180200590E2142020CDE9CA
:104F000007205048049100904FF4405009900692B9
:104F100069462046FBF7E7FA01212046FBF70DFB27
:104F20000CB010BD10B586B001212020FBF791FD1B
:104F30004FF48070ADF8100018208DF81300032096
:104F4000414C8DF8120004A92046FBF79AFB61152D
:104F5000ADF8101004218DF8131004A92046FBF7BA
:104F600090FB01210846FBF774FD01213748FBF750
:104F700013FC01218804FBF775FD4FF416500090D7
:104F80000020ADF80400ADF80600ADF80800ADF85B
:104F90000C002C4C0C20ADF80A00241F694620465A
:104FA000FCF74EFB012240F224412046FCF7C5FBF2
:104FB000012240212046FCF7D8FB01212046FCF7C6
:104FC000B2FB06B010BD10B521A086B0D0E900102C
:104FD000CDE9001020A01B4CD0E90010CDE9021053
:104FE0001FA0241FD0E90010CDE904100522694656
:104FF000204600F0BCF86420FFF751FF052202A90B
:10500000204600F0B4F86420FFF749FF052204A908
:10501000204600F0ACF86420FFF741FFD1E710B55F
:10502000FFF748FFFFF756FFFFF77CFFFFF7CBFFC7
:10503000BDE810404FF49670FFF731BF30000240DA
:10504000289500200448004000140140300014005E
:10505000FFAA6988B5000000FFAA760000000000E2
:10506000FFAA00FF0000000010B501218CB0084627
:10507000FBF7E6FC874C2046FBF7C8F980230021AC
:10508000CDE90213844801901A010A912020CDE94C
:105090000720824800904FF440500990CDE9041356
:1050A000069269462046FBF71EFA01212046FBF7CF
:1050B00044FA0CB010BD70B586B001210420FBF796
:1050C000C8FC4FF40070ADF8100018208DF81300E4
:1050D000734C03258DF8125004A92046FBF7D1FA32
:1050E0002115ADF8101004218DF8131004A92046E5
:1050F000FBF7C7FA01218803FBF7ABFC00244FF450
:1051000016500090654EADF808400C20ADF80440F4
:10511000ADF80A00361FADF80640ADF80C40694600
:105120003046FCF78DFA25208DF814008DF81540D7
:105130008DF8165001208DF8170005A8FBF713F91C
:10514000012240F225513046FCF7F7FA01213046A2
:10515000FCF7E9FA06B070BD10B50446FCF739FB60
:1051600080212046FCF796FB0028F9D010BD2DE9E0
:10517000F04115460E460746002405E0315D3846ED
:10518000FFF7EAFF641CE4B2AC42F7D34021384693
:10519000FCF780FB0028F9D0BDE8F08170B50D4622
:1051A000064600243046295DFFF7D6FF641C285DC3
:1051B0000028F7D140213046FCF76CFB0028F9D0DD
:1051C00070BD70B50446080ACDB201462046FCF712
:1051D00000FB80212046FCF75DFB0028F9D0294622
:1051E0002046FCF7F6FA80212046FCF753FB002806
:1051F000F9D070BD70B5294D0446C1B22D1F2846A7
:10520000FCF7E7FA80212846FCF744FB0028F9D098
:10521000204670BD10B5214C241F20212046FCF7EC
:1052200039FB0028F9D02046BDE81040FCF7D5BA7C
:1052300010B586B001211020FBF70BFC4FF4406045
:10524000ADF8100018208DF8130003208DF812001F
:1052500004A91448FBF715FA0121C804FBF702FC66
:105260004FF4165000900020ADF80400ADF8060091
:10527000ADF80800ADF80C000C200B4CADF80A009E
:1052800069462046FCF7DCF901212046FCF74BFA81
:1052900006B010BD5800024080950020043801403F
:1052A0000008014000100140004C004008B53520C6
:1052B0008DF8000003208DF8010001208DF8020018
:1052C0008DF803006846FBF74EF808BD10B586B0B0
:1052D00001211020FBF7BDFB4FF48050ADF810000A
:1052E00018208DF8130003208DF8120004A95048EF
:1052F000FBF7C7F901212020FBF7ABFB0420ADF839
:1053000010008DF8130004A94A48FBF7BAF90121EF
:105310000805FBF7A7FB4FF4E13000900020ADF843
:105320000400ADF80600ADF80800ADF80C000C2044
:10533000414CADF80A0069462046FCF781F901228C
:1053400040F225512046FCF7F8F901212046FCF7F0
:10535000EAF906B010BD10B5FFF7A8FFFFF7B6FFDA
:105360003648202101700021017010BD08B52620AB
:105370008DF8000003208DF8010001208DF8020057
:105380008DF803006846FAF7EEFF08BD70B50121FD
:105390004D0486B02846FBF765FB0424ADF81040A9
:1053A00018208DF813000320254E8DF8120004A953
:1053B0003046FBF766F901210420FBF74AFB082081
:1053C000ADF810008DF8134004A93046FBF759F9E9
:1053D00001212846FBF746FB4FF4E1300090002006
:1053E000ADF80400ADF80600ADF80800ADF80C000B
:1053F0000C20144CADF80A0069462046FCF720F951
:10540000012240F225512046FCF797F90121204660
:10541000FCF789F906B070BD10B5FFF7A7FFFFF7DD
:10542000B5FF06486121801C01700021417010BD4C
:10543000001001400014014000500040A000002076
:10544000000801400044004008B51C208DF8000011
:1054500003208DF8010001208DF802008DF8030073
:105460006846FAF780FF08BD10B588B00121042016
:10547000FBF7EFFA4FF40040ADF80C0004248DF870
:105480000F4003A9BE48FBF7FCF801210820FBF7F9
:10549000E0FA0820ADF80C008DF80F4003A9B948D8
:1054A000FBF7EFF801210846FBF7D3FA0121B648D4
:1054B000FBF772F90121B548FBF76EF901210846A7
:1054C000FBF7D0FA24072046FBF712FB6846FBF7F0
:1054D0002BFE002141F2FF30ADF80400ADF80010C2
:1054E000ADF80610ADF8021069462046FBF798FBB0
:1054F0000A231A4603212046FBF7B7FE04A8FBF750
:1055000026FE0F20ADF8180004A92046FBF740FD49
:1055100001212046FCF752F8FFF796FF01221146C1
:105520002046FBF73AFE00212046FCF71EF8012139
:105530002046FBF71DFE08B010BD08B51D208DF8F4
:10554000000003208DF8010001208DF802008DF885
:1055500003006846FAF707FF08BD10B588B00121BF
:105560000820FBF776FA3020ADF8180004208DF8FB
:105570001B0006A98348FBF784F801210846FBF7C6
:1055800068FA01218248FBF707F901210220FBF7A5
:1055900069FA804C2046FBF7ABFA6846FBF7C4FD7E
:1055A000002141F2FF30ADF80400ADF80010ADF875
:1055B0000610ADF8021069462046FBF731FB0A23BE
:1055C0001A4603212046FBF750FE03A8FBF7BFFD58
:1055D0000F20ADF8140003A92046FBF7D9FC0121E8
:1055E0002046FBF7EBFFFFF7A8FF012211462046FC
:1055F000FBF7D3FD00212046FBF7B7FF0121204632
:10560000FBF7B6FD97E708B51E208DF800000320D4
:105610008DF8010001208DF802008DF80300684626
:10562000FAF7A1FE08BD10B588B001210820FBF7EC
:1056300010FAC020ADF8180004208DF81B0006A950
:105640005048FBF71EF801210420FBF70BFA524CDF
:105650002046FBF74DFA6846FBF766FD002141F254
:10566000FF30ADF80400ADF80010ADF80610ADF84D
:10567000021069462046FBF7D3FA0A231A46032193
:105680002046FBF7F2FD03A8FBF761FD0F20ADF804
:10569000140003A92046FBF77BFC01212046FBF701
:1056A0008DFFFFF7B0FF012211462046FBF775FD85
:1056B00000212046FBF759FF01212046FBF758FD4A
:1056C00039E708B532208DF8000003208DF801007D
:1056D00001208DF802008DF803006846FAF743FEBA
:1056E00008BD10B588B001210420FBF7B2F90320F2
:1056F000ADF8180004208DF81B0006A92048FAF721
:10570000C0FF01210820FBF7ADF9244C2046FBF730
:10571000EFF96846FBF708FD002141F2FF30ADF8D4
:105720000400ADF80010ADF80610ADF8021069469F
:105730002046FBF775FA0A231A4603212046FBF799
:1057400094FD03A8FBF703FD0F20ADF8140003A997
:105750002046FBF71DFC01212046FBF72FFFFFF73A
:10576000B0FF012211462046FBF717FD002120461D
:10577000FBF7FBFE01212046FBF7FAFCDBE600000D
:1057800000080140000C0140000230000001180038
:1057900000081A000004004000080040000C00400F
:1057A00030B589B001214020FBF753F94FF4D440C4
:1057B000ADF81C0018208DF81F0003208DF81E0086
:1057C00007A98848FAF75DFF01210846FBF741F970
:1057D00001218548FAF7E0FF834801218030FAF77C
:1057E000DBFF0121C802FBF734F940F21F30ADF8AE
:1057F00014005920ADF8100000247C4DADF816407F
:10580000ADF8124004A92846FBF70AFA6020ADF86B
:1058100000000120ADF80200ADF806400420ADF80C
:105820000400ADF80840ADF80C40ADF80A40ADF802
:105830000E4069462846FBF72CFA08212846FBF75C
:1058400075FD01212846FBF749FD69462846FBF70F
:1058500020FA08212846FBF769FD69462846FBF730
:105860004DFA08212846FBF771FD69462846FBF7EB
:1058700081FA08212846FBF773FD69462846FBF7A5
:10588000B3FA08212846FBF771FD01212846FBF7F2
:105890006FFC01212846FBF775FC00212846FBF729
:1058A00068FE00212846FBF766FE00212846FBF72C
:1058B00064FE00212846FBF762FE09B030BD30B51A
:1058C00089B001211020FBF7C4F84FF47070ADF8D7
:1058D0001C0018208DF81F0003208DF81E0007A95A
:1058E0004348FAF7CEFE01212020FBF7B2F8102042
:1058F0008DF823007820ADF8200002208DF82200DA
:1059000008A93C48FAF7BDFE01214803FBF7A1F8BE
:1059100040F2E730ADF814005920ADF81000002433
:10592000354DADF81640ADF8124004A92846FBF7F6
:1059300077F96020ADF800000120ADF80200ADF865
:1059400006400420ADF80400ADF80840ADF80C4066
:10595000ADF80A40ADF80E4069462846FBF799F9C4
:1059600008212846FBF7E2FC01212846FBF7B6FC9C
:1059700069462846FBF78DF908212846FBF7D6FC37
:1059800069462846FBF7BAF908212846FBF7DEFCF2
:1059900069462846FBF7EEF908212846FBF7E0FCAC
:1059A00069462846FBF720FA08212846FBF7DEFC6B
:1059B00001212846FBF7DCFB01212846FBF7E2FB2F
:1059C00000212846FBF7D5FD00212846FBF7D3FD33
:1059D00000212846FBF7D1FD00212846FBF7CFFD2B
:1059E0006BE700000018014040001600002C014049
:1059F0000010014000140140003401403EB5362043
:105A00008DF8000001208DF8010003218DF80210AF
:105A10008DF803006846FAF7A6FC01211020FBF779
:105A200021F84720ADF8000042F20F700B4CADF8A2
:105A3000040069462046FBF7F3F801212046FBF7F6
:105A4000BDFD012211462046FBF7A7FB01212046A0
:105A5000FBF78EFB3EBD00F00FBA000000100040C7
:105A600003E011F8013B1844C0B2521ED2B2F8D282
:105A700070472DE9F34F81B0CA4D002000904FF0E0
:105A8000FF0AEB88AA882889802100F07EF984B279
:105A9000092C6ED36889A94690BBB9F804608021AF
:105AA0000020B346DFF800E3E71ED9F800202AE023
:105AB0003318B3FBF1F501FB153512F805C05D1C79
:105AC000B5FBF1F801FB1855555D4CEA052C9D1C02
:105AD000B5FBF1F801FB1855DB1CB3FBF1F801FB3A
